:060000000A128A11F52F1F
:100D3800831603130F088F3930388F000F140800FB
:100D4800831603178901831603138601831203137D
:100D5800860108008316031387159B3092000F3015
:100D6800831203139D049D161D160B309B008C10D7
:100D78000330920412158C1CC22EC32EBF2E83166C
:100D88000313871108008316031307159B3092007D
:100D98003F308312031397051708F0390C38970072
:100DA800303097040B3095008C10033092041215E4
:100DB8008C1CDF2EE02EDC2E83160313071108008F
:100DC8008316031305148316031788148316031355
:100DD80085148316031788148316031305158316C1
:100DE80003170815831203139F131F178316031382
:100DF8009F121F129F13831203131F140000080071
:100E0800F601F11F082F092F102FF009F109F00A38
:100E18000319F10AF601F60AF31F132F142F1D2FD9
:100E2800F209F309F20A0319F30A0130F40074080D
:100E3800F606F701F801700871040319242F252F0D
:100E48005C2FF501F50A332F01300310F00DF10D79
:100E5800FF3E031D292F0130F4007408F507F11F28
:100E6800362F372F282F01300310F70DF80DFF3ECE
:100E7800031D382F71087302031D442F7008720276
:100E8800031C472F482F4F2F7008F2027108031CCC
:100E9800F303F302771401300310F10CF00CFF3E5A
:100EA800031D502F0130F502031D5B2F5C2F372FD8
:100EB80076080319602F612F662FF709F809F70ADA
:100EC8000319F80A7808F1007708F00008000A12F8
:100ED8008A11A4260A128A110A128A119C260A1259
:100EE8008A110A128A11C7260A128A110A128A114D
:100EF800AE260A128A110A128A11E4260A128A11E7
:100F0800C330831203139F059F149F188C2F8D2FB6
:100F1800892F0C131E08F900FA017908FB007A08DA
:100F2800FC001030F0000030F1007C08F3007B0872
:100F3800F2000A128A1104270A128A117008FD00A9
:100F480008307D02031CA92FAA2FBB2F10307D0269
:100F58000318AF2FB02FBB2F7D0883120313950002
:100F6800F930F900B72FF90BB62FBA2FBB2F831220
:100F780003131F081F089F18C22FC32FBF2F0C135E
:100F88001E08F900FA017908A0007A08A1001030BB
:100F9800F0000030F1002108F3002008F2000A12E6
:100FA8008A1104270A128A117008FD0008307D0290
:100FB800031CDF2FE02F842F10307D020318E52F4C
:100FC800E62F842F7D08831203139B00F930F90064
:100FD800ED2FF90BEC2FF02FF12F842F0A128A1125
:100FE8000028FB01FC01FD0183120313A001A101EC
:080FF80083010A128A116B2F1C
:08400000FF3FFF3FFF3FFF3FC0
:04400E00D420FF3F7C
:00000001FF
